S01D0000476C6F7665436F6E74726F6C6C657253797374656D2E7372656361
S11300000C942A000C943C000C943C000C943C008E
S11300100C943C000C943C000C943C000C943C006C
S11300200C943C000C943C000C943C000C943C005C
S11300300C943C000C943C000C943C000C943C004C
S11300400C943C000C943C000C943C000C943C003C
S11300500C943C0011241FBECFE5D8E0DEBFCDBF19
S113006020E0A0E6B0E001C01D92A738B207E1F796
S11300700E941D020C9470030C94000011B880E2DD
S113008080B9089594EA96BF06B607FEFDCF91B1F4
S1130090987F903171F483B984E886BF06B607FE71
S11300A0FDCF81B1887F803431F0803231F482E039
S11300B0089580E0089581E0089583E0089584E937
S11300C086BF06B604FCFDCF0895CF93C82F84EAFB
S11300D086BF06B607FEFDCF81B1887F8830B9F7A9
S11300E0C3B984E886BF06B607FEFDCF81B1887F19
S11300F0883119F00E945F00EACFCF91089583B947
S113010084E886BF06B607FEFDCF81B1887F8832BA
S113011021F0803321F481E0089580E0089582E0A5
S1130120089584EC86BF06B607FEFDCF83B108951B
S113013084E886BF06B607FEFDCF83B108952FE796
S113014089EA93E0215080409040E1F700C000002C
S113015080ED0E94650089E10E947F0087E00E9493
S11301607F000E945F0080ED0E9465008BE60E9484
S11301707F0081E00E947F000E945F0080ED0E946A
S113018065008AE10E947F0080E00E947F000E9457
S11301905F0080ED0E9465008BE10E947F0088E192
S11301A00E947F000E945F0080ED0E94650088E34A
S11301B00E947F0081E00E947F000E945F000895FA
S11301C080ED0E9465008BE30E947F0081ED0E9418
S11301D042000895CF93DF930E94E0000E949100B3
S11301E0C82FD0E0DC2FCC270E949100BE01682BE1
S11301F0072E000C880B990B0E942C026093770049
S1130200709378008093790090937A000E94910013
S1130210C82FD0E0DC2FCC270E949100BE01682BB0
S1130220072E000C880B990B0E942C0260936B0024
S113023070936C0080936D0090936E000E94910007
S1130240C82FD0E0DC2FCC270E949100BE01682B80
S1130250072E000C880B990B0E942C0260936000FF
S11302607093610080936200909363000E949100F8
S1130270C82FD0E0DC2FCC270E949100BE01682B50
S1130280072E000C880B990B0E942C0260936700C8
S1130290709368008093690090936A000E949100B3
S11302A0C82FD0E0DC2FCC270E949100BE01682B20
S11302B0072E000C880B990B0E942C0260937B0084
S11302C070937C0080937D0090937E000E94910047
S11302D0C82FD0E0DC2FCC270E949800BE01682BE9
S11302E0072E000C880B990B0E942C02609373005C
S11302F07093740080937500909376000E945F0061
S1130300DF91CF9108952AB128612AB920B52668D2
S113031020BDDC01CB01880F991FAA1FBB1F880FCA
S1130320991FAA1FBB1F9C01AD01220F331F441F3D
S1130330551F220F331F441F551F60E072E18AE7E7
S113034090E00E944E038FEF820F89B9DA01C90150
S11303500197A109B109892F9A2FAB2FBB2780BD23
S113036008950E943E000E949F0080E895E20E944A
S11303708301D3E0C1E00E94EA0020E030E040E8DD
S113038058E36091770070917800809179009091A2
S11303907A000E9490024B015C0120E030E040E8CA
S11303A058E360916B0070916C0080916D009091A6
S11303B06E000E9490026B017C01C13061F420E068
S11303C030E040EA50E4C501B4010E948B021816E3
S11303D07CF4C2E00DC0C23059F420E030E040EAC1
S11303E050E4C501B4010E94250288230CF4C1E045
S11303F0D43061F420E030E040EA50E4C701B601B3
S11304000E948B0218167CF4D3E00DC0D33059F44B
S113041020E030E040EA50E4C701B6010E94250222
S113042088230CF4D4E02FEF81EE94E02150804037
S11304309040E1F700C000009ECF60E875E280E0E4
S113044090E00E9483010E94B1010E94670208F4B7
S113045081E00895E89409C097FB3EF49095809557
S1130460709561957F4F8F4F9F4F9923A9F0F92F76
S113047096E9BB279395F695879577956795B795F4
S1130480F111F8CFFAF4BB0F11F460FF1BC06F5FDA
S11304907F4F8F4F9F4F16C0882311F096E911C0EC
S11304A0772321F09EE8872F762F05C0662371F00D
S11304B096E8862F70E060E02AF09A95660F771F21
S11304C0881FDAF7880F9695879597F90895990FFD
S11304D00008550FAA0BE0E8FEEF16161706E8070A
S11304E0F907C0F012161306E407F50798F0621B2B
S11304F0730B840B950B39F40A2661F0232B242B00
S1130500252B21F408950A2609F4A140A6958FEF1E
S1130510811D811D08950E94670208F48FEF0895DC
S11305200E94A3020C9414030E94060338F00E9454
S11305300D0320F0952311F00C94FD020C94030399
S113054011240C9448030E94250370F3959FC1F372
S1130550950F50E0551F629FF001729FBB27F00D6D
S1130560B11D639FAA27F00DB11DAA1F649F6627C2
S1130570B00DA11D661F829F2227B00DA11D621F11
S1130580739FB00DA11D621F839FA00D611D221FCB
S1130590749F3327A00D611D231F849F600D211DAF
S11305A0822F762F6A2F11249F5750409AF0F1F032
S11305B088234AF0EE0FFF1FBB1F661F771F881F9B
S11305C091505040A9F79E3F510580F00C94FD02D4
S11305D00C9448035F3FE4F3983ED4F386957795F3
S11305E06795B795F795E7959F5FC1F7FE2B880F41
S11305F0911D9695879597F9089597F99F6780E8D7
S113060070E060E008959FEF80EC089500240A9460
S11306101616170618060906089500240A941216D9
S11306201306140605060895092E0394000C11F40C
S1130630882352F0BB0F40F4BF2B11F460FF04C0B9
S11306406F5F7F4F8F4F9F4F089557FD9058440F12
S1130650551F59F05F3F71F04795880F97FB991F1D
S113066061F09F3F79F087950895121613061406DA
S1130670551FF2CF4695F1DF08C016161706180667
S1130680991FF1CF86957105610508940895E89442
S1130690BB2766277727CB0197F90895A1E21A2E85
S11306A0AA1BBB1BFD010DC0AA1FBB1FEE1FFF1F12
S11306B0A217B307E407F50720F0A21BB30BE40B62
S11306C0F50B661F771F881F991F1A9469F76095A9
S11306D07095809590959B01AC01BD01CF01089563
S10706E0F894FFCFB8
S9030000FC
