S01700004D6F61766C6541726D53797374656D2E7372656304
S11300000C942A000C9434000C9434000C943400A6
S11300100C9434000C9434000C9434000C9434008C
S11300200C9434000C9434000C9434000C9434007C
S11300300C9434000C9434000C9434000C9434006C
S11300400C9434000C9434000C9434000C9434005C
S11300500C94340011241FBECFE5D8E0DEBFCDBF21
S11300600E946B000C9473000C9400008FE087BB1B
S113007080E090E021C029E028BBEFE2F5E731976A
S1130080F1F700C0000023E028BBEFE2F5E7319769
S1130090F1F700C0000026E028BBEFE2F5E7319756
S11300A0F1F700C000002CE028BBEFE2F5E7319740
S11300B0F1F700C0000001968C309105E4F2D8CF2E
S11300C01DBC1CBC83EC99E097BD86BD82EA8FBD44
S11300D08BE18EBD08950E9460008FEF84BB80EB9E
S10D00E081BB0E943600F894FFCFA4
S9030000FC
