S01700004D6F61766C6541726D53797374656D2E7372656304
S11300000C942A000C943C000C943C000C943C008E
S11300100C943C000C943C000C943C000C943C006C
S11300200C943C000C943C000C943C000C943C005C
S11300300C943C000C943C000C943C000C943C004C
S11300400C943C000C943C000C943C000C943C003C
S11300500C943C0011241FBECFE5D8E0DEBFCDBF19
S113006020E0A0E6B0E001C01D92A236B207E1F79D
S11300700E944C000C9493000C9400001DBC1CBC0A
S11300808FE19EE497BD86BD81B3806281BB82E827
S11300908FBD8BE18EBD08950E943E008EE090E0FE
S11300A0909361008093600014C09BBD8ABD2FEFC4
S11300B089E698E1215080409040E1F700C00000BB
S11300C0809160009091610001969093610080930B
S11300D0600080916000909161008032910528F366
S11300E08FE190E0909361008093600014C09BBD09
S11300F08ABD2FEF89E698E1215080409040E1F7D6
S113010000C000008091600090916100019790937D
S113011061008093600080916000909161008E3056
S10D0120910528F7BBCFF894FFCF38
S9030000FC
