S01700004D6F61766C6541726D53797374656D2E7372656304
S11300000C942A000C9434000C9434000C943400A6
S11300100C9434000C9434000C9434000C9434008C
S11300200C9434000C9434000C9434000C9434007C
S11300300C9434000C9434000C9434000C9434006C
S11300400C9434000C9434000C9434000C9434005C
S11300500C94340011241FBECFE5D8E0DEBFCDBF21
S11300600E9436000C9458000C9400001DBC1CBC6B
S113007083EC99E097BD86BD82EA8FBD8BE18EBD8E
S113008080EB81BB8DE790E00FC02FEF39E648E1AC
S1130090215030404040E1F700C0000099BD88BDC8
S11300A09BBD8ABD83BD01968B3F910570F3EACF5A
S10700B0F894FFCFEE
S9030000FC
